:020000020000FC
:020000001AC024
:1000340025C008E00EBF0FEF0DBFF89400E0009359
:100044000401009305010093060107D011D09927FC
:100054003BD078945BD063D0FDCF04E00093810063
:1000640001E000936F0001E0009316002DD0089585
:100074000FEF04B90FEF0AB903E007B9F89450FB86
:1000840050FDE89450FF689450F993959230C9F468
:1000940000910401109105012091060103950C3390
:1000A40011F400271395009304011C3311F4112754
:1000B400239510930501283109F422272093060182
:1000C400992702D07894189505E8009385000EEEE0
:1000D40000938400089533274427009104012AE003
:1000E40077278827802F020B10F07395FBCF372FCB
:1000F400482F18E115B9242FE8EDF1E000E0E20FF4
:10010400F01FC895202D2BB957D0089510E015B9CC
:1001140053D050FF03C010E115B94ED008953327D2
:100124004427009105012AE077278827802F020BB6
:1001340010F07395FBCF372F482F11E015B9232FFB
:10014400E8EDF1E000E0E20FF01FC895202D2BB997
:1001540033D012E015B9242FE8EDF1E000E0E20F0E
:10016400F01FC895202D2BB927D0332744270091A1
:1001740004012AE077278827802F020B10F073955B
:10018400FBCF372F482F14E015B9232FE8EDF1E00A
:1001940000E0E20FF01FC895202D2BB90DD018E018
:1001A40015B9242FE8EDF1E000E0E20FF01FC89547
:1001B400202D2BB901D008957BE083E68A95F1F7D1
:1001C4007A95E1F7089578E685EE8A95F1F77A95C0
:0E01D400E1F70895C0F9A4B0999282F88090E6
:00000001FF
