:020000020000FC
:020000005AC0E4
:080004000C9490020C94B2026E
:100034009EC27BE083E68A95F1F77A95E1F708950D
:1000440078E685EE8A95F1F77A95E1F7089522E04E
:1000540038E34EEA4A95F1F73A95E1F72A95D1F754
:10006400089525E03FE042EF4A95F1F73A95E1F72C
:100074002A95D1F7089526E037E441EA4A95F1F745
:100084003A95E1F72A95D1F7089529E03EE145EE46
:100094004A95F1F73A95E1F72A95D1F7089527E2C1
:1000A40036EF4CEE4A95F1F73A95E1F72A95D1F7F8
:1000B400089508E00EBF0FEF0DBFF89400270093DA
:1000C400080100930B01009307010093090102E06A
:1000D40000930A010AE000930F010AE000930D0166
:1000E40000E000930401009305010093060101D28E
:1000F40008D20ED23C9A449AA3DF4498D0DF3C98AD
:10010400B0DF349907C001E000930C0104E00093D0
:10011400070103C000E000930C013C9A449899271E
:100124001BD0789400910A01003011F005D313C05C
:1001340000910801003019F4A8D245D30CC0013055
:1001440019F4A3D240D307C0023009F421F00330DC
:1001540011F4A7D200C0E6CF05E8009385000EEEA7
:100164000093840008951CEC3C9A449862DF10FDCF
:100174003C9810FF00007FDF3C9A44985ADF11FD41
:100184003C9811FF000077DF3C9A449852DF12FD3F
:100194003C9812FF00006FDF3C9A44984ADF13FD3D
:1001A4003C9813FF000067DF3C9A449842DF14FD3B
:1001B4003C9814FF00005FDF3C9A44983ADF15FD39
:1001C4003C9815FF000057DF3C9A449832DF16FD37
:1001D4003C9816FF00004FDF3C9A44982ADF17FD35
:1001E4003C9817FF000047DF14E43C9A449821DF51
:1001F40010FD3C9810FF00003EDF3C9A449819DF44
:1002040011FD3C9811FF000036DF3C9A449811DF41
:1002140012FD3C9812FF00002EDF3C9A449809DF3F
:1002240013FD3C9813FF000026DF3C9A449801DF3D
:1002340014FD3C9814FF00001EDF3C9A4498F9DE3C
:1002440015FD3C9815FF000016DF3C9A4498F1DE3A
:1002540016FD3C9816FF00000EDF3C9A4498E9DE38
:1002640017FD3C9817FF000006DF19DF0EDF0DDFD6
:1002740008951CEC3C9A4498DCDE10FD3C9810FF79
:100284000000F9DE3C9A4498D4DE11FD3C9811FF3D
:100294000000F1DE3C9A4498CCDE12FD3C9812FF3B
:1002A4000000E9DE3C9A4498C4DE13FD3C9813FF39
:1002B4000000E1DE3C9A4498BCDE14FD3C9814FF37
:1002C4000000D9DE3C9A4498B4DE15FD3C9815FF35
:1002D4000000D1DE3C9A4498ACDE16FD3C9816FF33
:1002E4000000C9DE3C9A4498A4DE17FD3C9817FF31
:1002F4000000C1DE1EEB3C9A44989BDE10FD3C9846
:1003040010FF0000B8DE3C9A449893DE11FD3C983F
:1003140011FF0000B0DE3C9A44988BDE12FD3C983D
:1003240012FF0000A8DE3C9A449883DE13FD3C983B
:1003340013FF0000A0DE3C9A44987BDE14FD3C9839
:1003440014FF000098DE3C9A449873DE15FD3C9837
:1003540015FF000090DE3C9A44986BDE16FD3C9835
:1003640016FF000088DE3C9A449863DE17FD3C9833
:1003740017FF000080DE3C9A44985BDE5ADE3C980E
:1003840066DE24991060249B1F7F6BDE3C9A4498A0
:1003940050DE4FDE3C985BDE24991160249B1E7F67
:1003A40060DE3C9A449845DE44DE3C9850DE249955
:1003B4001260249B1D7F55DE3C9A44983ADE39DE58
:1003C4003C9845DE24991360249B1C7F4ADE3C9AAA
:1003D40044982FDE2EDE3C983ADE24991460249B48
:1003E4001B7F3FDE3C9A449824DE23DE3C982FDEBC
:1003F40024991560249B1A7F34DE3C9A449819DEB4
:1004040018DE3C9824DE24991660249B197F29DE8B
:100414003C9A44980EDE0DDE3C9819DE2499176050
:10042400249B187F1EDE3C9A449803DE02DE3C982F
:100434000EDE24992060249B2F7F13DE3C9A44987F
:10044400F8DDF7DD3C9803DE24992160249B2E7FA0
:1004540008DE3C9A4498EDDDECDD3C98F8DD249907
:100464002260249B2D7FFDDD3C9A4498E2DDE1DD92
:100474003C98EDDD24992360249B2C7FF2DD3C9A8B
:100484004498D7DDD6DD3C98E2DD24992460249B92
:100494002B7FE7DD3C9A4498CCDDCBDD3C98D7DD5F
:1004A40024992560249B2A7FDCDD3C9A4498C1DD95
:1004B400C0DD3C98CCDD24992660249B297FD1DDC6
:1004C4003C9A4498B6DDB5DD3C98C1DD249927609B
:1004D400249B287FC6DD107F2F70122B222717FD47
:1004E40001C002C0187F206010930D0120930E01FB
:1004F400089504E00093810001E000936F002CDE76
:1005040008950FE304B903EF0AB90FE307B9089597
:100514000AE00093690003E00DBB0895F89420916C
:1005240007012395253009F4222720930701203061
:1005340019F4009108010DC0213019F400910B0148
:1005440008C0223011F400E004C0233011F400E0AC
:1005540000C00093090122E020930A0178941895C1
:10056400F8943DD022E020930A0178941895F894E9
:1005740050FB50FDE89450FF689450F993959230E5
:1005840021F500910B010030C1F00091040110919C
:1005940005012091060103950C3311F400271395EE
:1005A400009304011C3311F41127239510930501C2
:1005B400283109F4222720930601992700910A0182
:1005C400003019F00A9500930A0100910F010030E0
:1005D40019F00A9500930F01BFDD789418952091C6
:1005E4000701203059F4109108011395143009F4CF
:1005F4001127109308011093090145C0213059F4C3
:1006040010910B011395123009F4112710930B016B
:100614001093090138C0223049F4112710930901BD
:10062400109106011395109306012DC0233049F44F
:1006340011271093090110910501139510930501D9
:1006440022C0243001F51127109309013C9A449AE1
:10065400F7DC449824DD3C9804DD349907C001E0BC
:1006640000930C0104E00093070103C000E0009331
:100674000C0100910C01013009F002C074DDF9DDB8
:100684003C9A449800C00895089550FF05C010E2B4
:1006940018B910E01BB9CDDC10E018B910E01BB993
:1006A40008953327442700910E0100FF07C010E886
:1006B40020E8212B2BB900E005B9BBDC20E02BB9E5
:1006C40000E005B9B6DC3327442700910D012AE088
:1006D40077278827802F020B10F07395FBCF372FD5
:1006E400482F10E4232FF9E0E2EA622FE60F60E0DE
:1006F400F61F2491212B2BB9032FF9E0ECEA602F8C
:10070400E60F60E0F61F049105B993DC10E2242F94
:10071400F9E0E2EA622FE60F60E0F61F2491212B54
:100724002BB9042FF9E0ECEA602FE60F60E0F61F26
:10073400049105B97EDC089533274427009107010D
:100744002AE077278827802F020B10F07395FBCFC0
:10075400372F482F10E4242FF9E0E2EA622FE60F46
:1007640060E0F61F2491212B2BB9042FF9E0ECEA69
:10077400602FE60F60E0F61F049105B95ADC3327B9
:100784004427009109012AE077278827802F020B4C
:1007940010F07395FBCF372F482F10E1242FF9E089
:1007A400E2EA622FE60F60E0F61F2491212B2BB9B9
:1007B400042FF9E0ECEA602FE60F60E0F61F0491E5
:1007C40005B937DC089500910801003009F071C0C3
:1007D40033274427009106012AE077278827802FB2
:1007E400020B10F07395FBCF372F482F10E8232FFF
:1007F400F9E0E2EA622FE60F60E0F61F2491212B74
:100804002BB9032FF9E0ECEA602FE60F60E0F61F46
:10081400049105B90EDC10E4242FF9E0E2EA622F1A
:10082400E60F60E0F61F2491212B2BB9042FF9E089
:10083400ECEA602FE60F60E0F61F049105B9F9DBDE
:1008440033274427009105012AE077278827802F42
:10085400020B10F07395FBCF372F482F10E2232F94
:10086400F9E0E2EA622FE60F60E0F61F2491212B03
:100874002BB9032FF9E0ECEA602FE60F60E0F61FD6
:10088400049105B9D6DB10E1242FF9E0E2EA622FE6
:10089400E60F60E0F61F2491212B2BB9042FF9E019
:1008A400ECEA602FE60F60E0F61F049105B9C1DBA6
:1008B40075C000910801013009F070C03327442746
:1008C400009105012AE077278827802F020B10F07A
:1008D4007395FBCF372F482F10E8232FF9E0E2EA76
:1008E400622FE60F60E0F61F2491212B2BB9032F12
:1008F400F9E0ECEA602FE60F60E0F61F049105B919
:1009040098DB10E4242FF9E0E2EA622FE60F60E0BE
:10091400F61F2491212B2BB9042FF9E0ECEA602F68
:10092400E60F60E0F61F049105B983DB3327442703
:10093400009104012AE077278827802F020B10F00A
:100944007395FBCF372F482F10E2232FF9E0E2EA0B
:10095400622FE60F60E0F61F2491212B2BB9032FA1
:10096400F9E0ECEA602FE60F60E0F61F049105B9A8
:1009740060DB10E1242FF9E0E2EA622FE60F60E089
:10098400F61F2491212B2BB9042FF9E0ECEA602FF8
:10099400E60F60E0F61F049105B94BDB08950202EF
:1009A40000000000000200000027090326121007BF
:0209B40000023F
:00000001FF
