:020000020000FC
:020000005AC0E4
:080004000C94B7020C94C80231
:10003400B4C27BE083E68A95F1F77A95E1F70895F7
:1000440078E685EE8A95F1F77A95E1F7089522E04E
:1000540038E34EEA4A95F1F73A95E1F72A95D1F754
:10006400089525E03FE042EF4A95F1F73A95E1F72C
:100074002A95D1F7089526E037E441EA4A95F1F745
:100084003A95E1F72A95D1F7089529E03EE145EE46
:100094004A95F1F73A95E1F72A95D1F7089527E2C1
:1000A40036EF4CEE4A95F1F73A95E1F72A95D1F7F8
:1000B400089508E00EBF0FEF0DBFF89400270093DA
:1000C4000701009308010093090100930A010093BA
:1000D4000B0100930D0102E000930E010AE000936E
:1000E400130105E20093110100E000930401009361
:1000F40005010093060124D22BD231D299271BD0BB
:10010400789400910E01003011F04BD313C000918C
:100114000801003019F4EED28BD30CC0013019F46D
:10012400E9D286D307C0023009F421F0033011F478
:10013400EDD200C0E6CF05E8009385000EEE0093F3
:10014400840008953C9A449A7BDF4498A8DF3C9845
:1001540088DF349904C001E00093100103C000E07B
:100164000093100100911001013009F083C01CECD0
:100174003C9A44985EDF10FD3C9810FF00007BDF42
:100184003C9A449856DF11FD3C9811FF000073DF40
:100194003C9A44984EDF12FD3C9812FF00006BDF3E
:1001A4003C9A449846DF13FD3C9813FF000063DF3C
:1001B4003C9A44983EDF14FD3C9814FF00005BDF3A
:1001C4003C9A449836DF15FD3C9815FF000053DF38
:1001D4003C9A44982EDF16FD3C9816FF00004BDF36
:1001E4003C9A449826DF17FD3C9817FF000043DF34
:1001F40014E43C9A44981DDF10FD3C9810FF000065
:100204003ADF3C9A449815DF11FD3C9811FF000039
:1002140032DF3C9A44980DDF12FD3C9812FF000037
:100224002ADF3C9A449805DF13FD3C9813FF000035
:1002340022DF3C9A4498FDDE14FD3C9814FF000034
:100244001ADF3C9A4498F5DE15FD3C9815FF000032
:1002540012DF3C9A4498EDDE16FD3C9816FF000030
:100264000ADF3C9A4498E5DE17FD3C9817FF00002E
:1002740002DF15DF08953C9A449AE2DE44980FDFCA
:100284003C98EFDE349904C001E00093100103C0F0
:1002940000E00093100100911001013009F04FC1FA
:1002A4001CEC3C9A4498C5DE10FD3C9810FF0000FD
:1002B400E2DE3C9A4498BDDE11FD3C9811FF00003B
:1002C400DADE3C9A4498B5DE12FD3C9812FF000039
:1002D400D2DE3C9A4498ADDE13FD3C9813FF000037
:1002E400CADE3C9A4498A5DE14FD3C9814FF000035
:1002F400C2DE3C9A44989DDE15FD3C9815FF000033
:10030400BADE3C9A449895DE16FD3C9816FF000030
:10031400B2DE3C9A44988DDE17FD3C9817FF00002E
:10032400AADE1EEB3C9A449884DE10FD3C9810FF34
:100334000000A1DE3C9A44987CDE11FD3C9811FF3C
:10034400000099DE3C9A449874DE12FD3C9812FF3A
:10035400000091DE3C9A44986CDE13FD3C9813FF38
:10036400000089DE3C9A449864DE14FD3C9814FF36
:10037400000081DE3C9A44985CDE15FD3C9815FF34
:10038400000079DE3C9A449854DE16FD3C9816FF32
:10039400000071DE3C9A44984CDE17FD3C9817FF30
:1003A400000069DE3C9A449844DE43DE3C984FDE0C
:1003B40024991060249B1F7F54DE3C9A449839DEB4
:1003C40038DE3C9844DE24991160249B1E7F49DE6C
:1003D4003C9A44982EDE2DDE3C9839DE2499126036
:1003E400249B1D7F3EDE3C9A449823DE22DE3C980B
:1003F4002EDE24991360249B1C7F33DE3C9A4498A0
:1004040018DE17DE3C9823DE24991460249B1B7F9E
:1004140028DE3C9A44980DDE0CDE3C9818DE2499C4
:100424001560249B1A7F1DDE3C9A449802DE01DE8F
:100434003C980DDE24991660249B197F12DE3C9AA9
:100444004498F7DDF6DD3C9802DE24991760249B7E
:10045400187F07DE3C9A4498ECDDEBDD3C98F7DD31
:1004640024992060249B2F7FFCDD3C9A4498E1DD95
:10047400E0DD3C98ECDD24992160249B2E7FF1DDA6
:100484003C9A4498D6DDD5DD3C98E1DD2499226080
:10049400249B2D7FE6DD3C9A4498CBDDCADD3C9855
:1004A400D6DD24992360249B2C7FDBDD3C9A449881
:1004B400C0DDBFDD3C98CBDD24992460249B2B7FD9
:1004C400D0DD3C9A4498B5DDB4DD3C98C0DD249978
:1004D4002560249B2A7FC5DD3C9A4498AADDA9DDCA
:1004E4003C98B5DD24992660249B297FBADD3C9A8B
:1004F40044989FDD9EDD3C98AADD24992760249BC7
:10050400287FAFDD107F2F70122B222717FD01C02B
:1005140002C0187F206010931101209312013C9AAD
:10052400449A8EDD4498BBDD3C989BDD349904C02D
:1005340001E00093100103C000E00093100108954E
:1005440004E00093810001E000936F00F4DD08955E
:100554000FE304B903EF0AB90FE307B908950AE0FA
:100564000093690003E00DBB0895F89420910701FE
:100574002395253009F422272093070100E00093F6
:100584000D0122E020930E0178941895F8943DD043
:1005940022E020930E0178941895F89450FB50FDB6
:1005A400E89450FF689450F99395923021F50091A6
:1005B4000F010030C1F00091040110910501209158
:1005C400060103950C3311F40027139500930401DD
:1005D4001C3311F41127239510930501283109F4D4
:1005E400222720930601992700910E01003019F06B
:1005F4000A9500930E0100911301003019F00A9539
:100604000093130198DD7894189520910701203008
:1006140079F41091080113951093080110930D01BA
:10062400143029F411271093080110930D0160C0B0
:100634002130C1F41091090113951093090110930D
:100644000D01123029F411271093090110930D01A3
:10065400103021F400E000930F014AC001E0009340
:100664000F0146C0223081F410E010930D01109365
:100674000A0110910601139510930601183109F42B
:1006840011271093060134C0233071F410E0109345
:100694000D0110930B011091050113951C3309F4FE
:1006A40011271093050124C0243011F510910C0179
:1006B400139510930C0110930D01123029F4112796
:1006C40010930C0110930D013DDDD5DD3091110126
:1006D40040911201307F4F70342B442737FD01C005
:1006E40002C0387F4060309311014093120100C072
:1006F4000895089550FF05C010E218B910E01BB921
:1007040098DC10E018B910E01BB90895332744278A
:100714000091120100FF07C010E820E8212B2BB93B
:1007240000E005B986DC20E02BB900E005B981DCE6
:1007340033274427009111012AE077278827802F47
:10074400020B10F07395FBCF372F482F10E4232FA3
:10075400FAE0ECE0622FE60F60E0F61F2491212B13
:100764002BB9032FFAE0E6E1602FE60F60E0F61FF5
:10077400049105B95EDC10E2242FFAE0ECE0622F6C
:10078400E60F60E0F61F2491212B2BB9042FFAE029
:10079400E6E1602FE60F60E0F61F049105B949DC3D
:1007A400089533274427009107012AE077278827F3
:1007B400802F020B10F07395FBCF372F482F10E4D6
:1007C400242FFAE0ECE0622FE60F60E0F61F24919C
:1007D400212B2BB9042FFAE0E6E1602FE60F60E04D
:1007E400F61F049105B925DC3327442700910D0138
:1007F4002AE077278827802F020B10F07395FBCF10
:10080400372F482F10E1242FFAE0ECE0622FE60F97
:1008140060E0F61F2491212B2BB9042FFAE0E6E1C6
:10082400602FE60F60E0F61F049105B902DC08951D
:1008340000910801003009F071C03327442700916A
:1008440006012AE077278827802F020B10F0739582
:10085400FBCF372F482F10E8232FFAE0ECE0622F6C
:10086400E60F60E0F61F2491212B2BB9032FFAE049
:10087400E6E1602FE60F60E0F61F049105B9D9DBCD
:1008840010E4242FFAE0ECE0622FE60F60E0F61F9C
:100894002491212B2BB9042FFAE0E6E1602FE60F17
:1008A40060E0F61F049105B9C4DB332744270091A7
:1008B40005012AE077278827802F020B10F0739513
:1008C400FBCF372F482F10E2232FFAE0ECE0622F02
:1008D400E60F60E0F61F2491212B2BB9032FFAE0D9
:1008E400E6E1602FE60F60E0F61F049105B9A1DB95
:1008F40010E1242FFAE0ECE0622FE60F60E0F61F2F
:100904002491212B2BB9042FFAE0E6E1602FE60FA6
:1009140060E0F61F049105B98CDB75C000910801F5
:10092400013009F070C033274427009105012AE003
:1009340077278827802F020B10F07395FBCF372F72
:10094400482F10E8232FFAE0ECE0622FE60F60E076
:10095400F61F2491212B2BB9032FFAE0E6E1602F37
:10096400E60F60E0F61F049105B963DB10E4242F61
:10097400FAE0ECE0622FE60F60E0F61F2491212BF1
:100984002BB9042FFAE0E6E1602FE60F60E0F61FD2
:10099400049105B94EDB33274427009104012AE072
:1009A40077278827802F020B10F07395FBCF372F02
:1009B400482F10E2232FFAE0ECE0622FE60F60E00C
:1009C400F61F2491212B2BB9032FFAE0E6E1602FC7
:1009D400E60F60E0F61F049105B92BDB10E1242F2C
:1009E400FAE0ECE0622FE60F60E0F61F2491212B81
:1009F4002BB9042FFAE0E6E1602FE60F60E0F61F62
:100A0400049105B916DB08950202000000000002FB
:0C0A140000000027090326121007000252
:00000001FF
