:020000020000FC
:020000005AC0E4
:080004000C94BA020C94C9022D
:10003400B3C27BE083E68A95F1F77A95E1F70895F8
:1000440078E685EE8A95F1F77A95E1F7089522E04E
:1000540038E34EEA4A95F1F73A95E1F72A95D1F754
:10006400089525E03FE042EF4A95F1F73A95E1F72C
:100074002A95D1F7089526E037E441EA4A95F1F745
:100084003A95E1F72A95D1F7089529E03EE145EE46
:100094004A95F1F73A95E1F72A95D1F7089527E2C1
:1000A40036EF4CEE4A95F1F73A95E1F72A95D1F7F8
:1000B400089508E00EBF0FEF0DBFF89400270093DA
:1000C4000701009308010093090100930A010093BA
:1000D4000B0100930C0102E000930D0100E000937A
:1000E400040100930501009306012DD234D23AD2C3
:1000F4003C9A449AA5DF4498D2DF3C98C6DF3499F1
:1001040004C001E000930F0103C000E000930F015D
:1001140000910F01013009F0FFC101E000930701D4
:100124001CEC3C9A449885DF84DF10FD3C9810FF5A
:100134000000A1DF3C9A44987CDF7BDF11FD3C98F2
:1001440011FF000098DF3C9A449873DF72DF12FDC0
:100154003C9812FF00008FDF3C9A44986ADF69DF05
:1001640013FD3C9813FF000086DF3C9A449861DF3E
:1001740060DF14FD3C9814FF00007DDF3C9A449836
:1001840058DF57DF15FD3C9815FF000074DF3C9ADB
:1001940044984FDF4EDF16FD3C9816FF00006BDFDE
:1001A4003C9A449846DF45DF17FD3C9817FF000052
:1001B40062DF14E43C9A44983CDF3BDF10FD3C983A
:1001C40010FF000058DF3C9A449833DF32DF11FD02
:1001D4003C9811FF00004FDF3C9A44982ADF29DF46
:1001E40012FD3C9812FF000046DF3C9A449821DF40
:1001F40020DF13FD3C9813FF00003DDF3C9A449838
:1002040018DF17DF14FD3C9814FF000034DF3C9A1C
:1002140044980FDF0EDF15FD3C9815FF00002BDF1F
:100224003C9A449806DF05DF16FD3C9816FF000053
:1002340022DF3C9A4498FDDEFCDE17FD3C9817FF54
:10024400000019DF3C9A449AFBDE449828DF3C986E
:100254001CDF349904C001E000930F0103C000E0E7
:1002640000930F011CEC3C9A4498E3DEE2DE10FD9F
:100274003C9810FF0000FFDE3C9A4498DADED9DE99
:1002840011FD3C9811FF0000F6DE3C9A4498D1DE43
:10029400D0DE12FD3C9812FF0000EDDE3C9A44983B
:1002A400C8DEC7DE13FD3C9813FF0000E4DE3C9A71
:1002B4004498BFDEBEDE14FD3C9814FF0000DBDE74
:1002C4003C9A4498B6DEB5DE15FD3C9815FF000057
:1002D400D2DE3C9A4498ADDEACDE16FD3C9816FFA7
:1002E4000000C9DE3C9A4498A4DEA3DE17FD3C98C6
:1002F40017FF0000C0DE1EEB3C9A44989ADE99DE9C
:1003040010FD3C9810FF0000B6DE3C9A449891DE44
:1003140090DE11FD3C9811FF0000ADDE3C9A44983C
:1003240088DE87DE12FD3C9812FF0000A4DE3C9AB2
:1003340044987FDE7EDE13FD3C9813FF00009BDEB5
:100344003C9A449876DE75DE14FD3C9814FF000058
:1003540092DE3C9A44986DDE6CDE15FD3C9815FFE8
:10036400000089DE3C9A449864DE63DE16FD3C9806
:1003740016FF000080DE3C9A44985BDE5ADE17FDCF
:100384003C9817FF000077DE3C9A449852DE51DE19
:100394003C985DDE44991060449B1F7F62DE3C9A6A
:1003A400449847DE46DE3C9852DE44991160449BF3
:1003B4001E7F57DE3C9A44983CDE3BDE3C9847DE89
:1003C40044991260449B1D7F4CDE3C9A449831DE74
:1003D40030DE3C983CDE44991360449B1C7F41DE34
:1003E4003C9A449826DE25DE3C9831DE449914601C
:1003F400449B1B7F36DE3C9A44981BDE1ADE3C98F5
:1004040026DE44991560449B1A7F2BDE3C9A44985F
:1004140010DE0FDE3C981BDE44991660449B197F66
:1004240020DE3C9A449805DE04DE3C9810DE4499B4
:100434001760449B187F15DE10931001109306017A
:100444003C9A4498F6DDF5DD3C9801DE4499106051
:10045400449B1F7F06DE3C9A4498EBDDEADD3C9822
:10046400F6DD44991160449B1E7FFBDD3C9A449861
:10047400E0DDDFDD3C98EBDD44991260449B1D7F99
:10048400F0DD3C9A4498D5DDD4DD3C98E0DD449918
:100494001360449B1C7FE5DD3C9A4498CADDC9DDAA
:1004A4003C98D5DD44991460449B1B7FDADD3C9A6B
:1004B4004498BFDDBEDD3C98CADD44991560449B79
:1004C4001A7FCFDD3C9A4498B4DDB3DD3C98BFDDA0
:1004D40044991660449B197FC4DD3C9A4498A9DD75
:1004E400A8DD3C98B4DD44991760449B187FB9DDBE
:1004F40010931101109305013C9A449AA1DD44988C
:10050400CEDD3C98C2DD349904C001E000930F01B4
:1005140003C000E000930F0199270ED07894109146
:100524000801123041F000910D01003011F0C2D0E9
:1005340002C0B4D008D1F3CF05E8009385000EEED5
:1005440000938400089504E00093810001E0009387
:100554006F00F2DF08950FE304B903EF0AB90FE364
:1005640007B908950AE00093690003E00DBB0895FC
:10057400209107012395243009F4222720930701B1
:1005840000E000930C0122E020930D01189535D072
:1005940022E020930D011895F89450FB50FDE89447
:1005A40050FF689450F99395923021F500910E0113
:1005B4000030C1F000910401109105012091060161
:1005C40003950C3311F400271395009304011C3395
:1005D40011F41127239510930501283109F42227DA
:1005E40020930601992700910D01003019F00A9516
:1005F40000930D01A1DF7894189520910701203014
:1006040079F41091080113951093080110930C01CB
:10061400133029F411271093080110930C013CC0E6
:100624002130C1F41091090113951093090110931D
:100634000C01123029F411271093090110930C01B5
:10064400103021F400E000930E0126C001E0009375
:100654000E0122C0223081F410E010930C0110939B
:100664000A0110910601139510930601183109F43B
:1006740011271093060110C0233071F410E0109379
:100684000C0110930B011091050113951C3309F40F
:1006940011271093050100C00895089550FF05C067
:1006A40010E218B910E01BB9C4DC10E018B910E06E
:1006B4001BB9089533274427009107012AE07727BF
:1006C4008827802F020B10F07395FBCF372F482F0C
:1006D40010E41BB9242FF9E0E2E3622FE60F60E097
:1006E400F61F2491212B2BB9042FF9E0ECE3602FA2
:1006F400E60F60E0F61F049105B99BDC332744271D
:1007040000910C012AE077278827802F020B10F034
:100714007395FBCF372F482F10E11BB9242FF9E035
:10072400E2E3622FE60F60E0F61F2491212B2BB940
:10073400042FF9E0ECE3602FE60F60E0F61F04916C
:1007440005B977DC089500910801003009F075C0FF
:1007540033274427009106012AE077278827802F32
:10076400020B10F07395FBCF372F482F10E81BB9FD
:10077400232FF9E0E2E3622FE60F60E0F61F2491F5
:10078400212B2BB9032FF9E0ECE3602FE60F60E097
:10079400F61F049105B94DDC10E41BB9242FF9E0D0
:1007A400E2E3622FE60F60E0F61F2491212B2BB9C0
:1007B400042FF9E0ECE3602FE60F60E0F61F0491EC
:1007C40005B937DC33274427009105012AE0772750
:1007D4008827802F020B10F07395FBCF372F482FFB
:1007E40010E21BB9232FF9E0E2E3622FE60F60E089
:1007F400F61F2491212B2BB9032FF9E0ECE3602F92
:10080400E60F60E0F61F049105B913DC10E11BB993
:10081400242FF9E0E2E3622FE60F60E0F61F249153
:10082400212B2BB9042FF9E0ECE3602FE60F60E0F5
:10083400F61F049105B9FDDB79C000910801013070
:1008440009F074C033274427009105012AE0772773
:100854008827802F020B10F07395FBCF372F482F7A
:1008640010E81BB9232FF9E0E2E3622FE60F60E002
:10087400F61F2491212B2BB9032FF9E0ECE3602F11
:10088400E60F60E0F61F049105B9D3DB10E41BB951
:10089400242FF9E0E2E3622FE60F60E0F61F2491D3
:1008A400212B2BB9042FF9E0ECE3602FE60F60E075
:1008B400F61F049105B9BDDB3327442700910401D9
:1008C4002AE077278827802F020B10F07395FBCF3F
:1008D400372F482F10E21BB9232FF9E0E2E3622FF0
:1008E400E60F60E0F61F2491212B2BB9032FF9E0CA
:1008F400ECE3602FE60F60E0F61F049105B999DB85
:1009040010E11BB9242FF9E0E2E3622FE60F60E067
:10091400F61F2491212B2BB9042FF9E0ECE3602F6F
:10092400E60F60E0F61F049105B983DB0895020227
:10093400000000000002000000270903261210072F
:020944000002AF
:00000001FF
