:020000020000FC
:020000001AC024
:080004000C9432000C9436004C
:1000340034C008E00EBF0FEF0DBFF89400E000934A
:100044000401009305010093060112D019D01FD0BA
:1000540016E018B9992747D078944DD057D0FDCFE2
:1000640000E000938100189504E000938100189546
:1000740004E00093810001E000936F0034D0089500
:100084000FE304B903EF0AB90FE307B908950AE0CF
:100094000093690003E00DBB0895F89450FB50FDF4
:1000A400E89450FF689450F993959230C9F4009104
:1000B4000401109105012091060103950C3311F4FC
:1000C40000271395009304011C3311F41127239581
:1000D40010930501283109F422272093060199275A
:1000E40002D07894189505E8009385000EEE0093ED
:1000F40084000895089510E218B910E01BB97BD06C
:1001040050FF03C010E018B976D008953327442770
:10011400009105012AE077278827802F020B10F031
:100124007395FBCF372F482F10E81BB9232FF2E02C
:10013400E6E1622FE60F60E0F61F2491212B2BB934
:10014400032FF2E0E0E2602FE60F60E0F61F049177
:1001540005B951D010E41BB9242FF2E0E6E1622F77
:10016400E60F60E0F61F2491212B2BB9042FF2E057
:10017400E0E2602FE60F60E0F61F049105B93BD082
:1001840033274427009104012AE077278827802F0A
:10019400020B10F07395FBCF372F482F10E21BB9D9
:1001A400232FF2E0E6E1622FE60F60E0F61F2491D0
:1001B400212B2BB9032FF2E0E0E2602FE60F60E081
:1001C400F61F049105B917D010E11BB9242FF2E0F2
:1001D400E6E1622FE60F60E0F61F2491212B2BB994
:1001E400042FF2E0E0E2602FE60F60E0F61F0491D6
:1001F40005B901D008957BE083E68A95F1F77A95F5
:10020400E1F7089578E685EE8A95F1F77A95E1F7B6
:100214000895020200000000000200000027090304
:0602240026121007000283
:00000001FF
