:020000020000FC
:020000001AC024
:080004000C9466000C947500D9
:100034005FC008E00EBF0FEF0DBFF89400270093D8
:100044000701009308010093090100930A0100933A
:100054000B0100930C0102E000930D0100E00093FA
:100064000401009305010093060119D020D026D085
:1000740099270ED0789410910801123041F0009124
:100084000D01003011F0C2D002C0B4D008D1F3CFBA
:1000940005E8009385000EEE00938400089504E0C3
:1000A4000093810001E000936F00F2DF08950FE3F5
:1000B40004B903EF0AB90FE307B908950AE00093FE
:1000C400690003E00DBB08952091070123952430B6
:1000D40009F422272093070100E000930C0122E099
:1000E40020930D01189535D022E020930D01189529
:1000F400F89450FB50FDE89450FF689450F99395A0
:10010400923021F500910E010030C1F000910401FC
:10011400109105012091060103950C3311F4002779
:100124001395009304011C3311F4112723951093A4
:100134000501283109F4222720930601992700910B
:100144000D01003019F00A9500930D01A1DF789498
:10015400189520910701203079F410910801139526
:100164001093080110930C01133029F411271093F4
:10017400080110930C013CC02130C1F41091090115
:1001840013951093090110930C01123029F41127CF
:100194001093090110930C01103021F400E0009336
:1001A4000E0126C001E000930E0122C0223081F42A
:1001B40010E010930C0110930A011091060113959D
:1001C40010930601183109F411271093060110C089
:1001D400233071F410E010930C0110930B01109173
:1001E400050113951C3309F411271093050100C070
:1001F4000895089550FF05C010E218B910E01BB926
:1002040042D110E018B910E01BB9089533274427F0
:10021400009107012AE077278827802F020B10F02E
:100224007395FBCF372F482F10E41BB9242FF4E02C
:10023400E6EA622FE60F60E0F61F2491212B2BB92A
:10024400042FF4E0E0EB602FE60F60E0F61F04916A
:1002540005B919D13327442700910C012AE07727E7
:100264008827802F020B10F07395FBCF372F482F70
:1002740010E11BB9242FF4E0E6EA622FE60F60E0F8
:10028400F61F2491212B2BB9042FF4E0E0EB602F0F
:10029400E60F60E0F61F049105B9F5D008950091CA
:1002A4000801003009F075C0332744270091060186
:1002B4002AE077278827802F020B10F07395FBCF55
:1002C400372F482F10E81BB9232FF4E0E6EA622FFA
:1002D400E60F60E0F61F2491212B2BB9032FF4E0E5
:1002E400E0EB602FE60F60E0F61F049105B9CBD078
:1002F40010E41BB9242FF4E0E6EA622FE60F60E075
:10030400F61F2491212B2BB9042FF4E0E0EB602F8E
:10031400E60F60E0F61F049105B9B5D033274427F2
:10032400009105012AE077278827802F020B10F01F
:100334007395FBCF372F482F10E21BB9232FF4E01E
:10034400E6EA622FE60F60E0F61F2491212B2BB919
:10035400032FF4E0E0EB602FE60F60E0F61F04915A
:1003640005B991D010E11BB9242FF4E0E6EA622F1D
:10037400E60F60E0F61F2491212B2BB9042FF4E043
:10038400E0EB602FE60F60E0F61F049105B97BD027
:1003940079C000910801013009F074C03327442763
:1003A400009105012AE077278827802F020B10F09F
:1003B4007395FBCF372F482F10E81BB9232FF4E098
:1003C400E6EA622FE60F60E0F61F2491212B2BB999
:1003D400032FF4E0E0EB602FE60F60E0F61F0491DA
:1003E40005B951D010E41BB9242FF4E0E6EA622FDA
:1003F400E60F60E0F61F2491212B2BB9042FF4E0C3
:10040400E0EB602FE60F60E0F61F049105B93BD0E6
:1004140033274427009104012AE077278827802F77
:10042400020B10F07395FBCF372F482F10E21BB946
:10043400232FF4E0E6EA622FE60F60E0F61F249132
:10044400212B2BB9032FF4E0E0EB602FE60F60E0E3
:10045400F61F049105B917D010E11BB9242FF4E05D
:10046400E6EA622FE60F60E0F61F2491212B2BB9F8
:10047400042FF4E0E0EB602FE60F60E0F61F049138
:1004840005B901D008957BE083E68A95F1F77A9562
:10049400E1F7089578E685EE8A95F1F77A95E1F724
:1004A4000895020200000000000200000027090372
:0604B400261210070002F1
:00000001FF
