:020000020000FC
:020000001AC024
:080004000C9444000C9453001D
:10003400A2C008E00EBF0FEF0DBFF8940027009395
:100044000701009308010093090100930A0100933A
:100054000B0100930C0105E000930D0100E00093F7
:100064000401009305010093060170D077D07DD080
:100074009927B2D0789410910801123011F0B4D0BD
:10008400C4D0F9CF209107012395243009F4222705
:100094002093070100E000930C0122E020930D015E
:1000A400189504D021E020930D01189520910701A3
:1000B400203079F4109108011395109308011093DE
:1000C4000C01133029F411271093080110930C012B
:1000D4003CC02130C1F4109109011395109309011A
:1000E40010930C01123029F4112710930901109375
:1000F4000C01103021F400E000930E0126C001E051
:1001040000930E0122C0223081F410E010930C0100
:1001140010930A01109106011395109306011831EA
:1001240009F411271093060110C0233071F410E074
:1001340010930C0110930B011091050113951C33BE
:1001440009F411271093050100C0089504E00093F9
:10015400810001E000936F003FD008950FE304B9DC
:1001640003EF0AB90FE307B908950AE000936900A1
:1001740003E00DBB0895F89450FB50FDE89450FF44
:10018400689450F99395923021F500910E01003056
:10019400C1F000910401109105012091060103951D
:1001A4000C3311F400271395009304011C3311F44C
:1001B4001127239510930501283109F42227209350
:1001C4000601992700910D01003019F00A9500935A
:1001D4000D0102D07894189505E8009385000EEE81
:1001E400009384000895089510E018B910E01BB935
:1001F40075D150FF05C010E218B910E01BB96ED1DB
:1002040010E018B910E01BB9089500910D010030F9
:1002140009F475C033274427009107012AE07727A2
:100224008827802F020B10F07395FBCF372F482FB0
:1002340010E81BB9232FF4E0ECEF622FE60F60E027
:10024400F61F2491212B2BB9032FF5E0E6E0602F54
:10025400E60F60E0F61F049105B940D110E41BB924
:10026400242FF4E0ECEF622FE60F60E0F61F2491F8
:10027400212B2BB9042FF5E0E6E0602FE60F60E0B8
:10028400F61F049105B92AD13327442700910C01A4
:100294002AE077278827802F020B10F07395FBCF75
:1002A400372F482F10E21BB9232FF4E0ECEF622F15
:1002B400E60F60E0F61F2491212B2BB9032FF5E004
:1002C400E6E0602FE60F60E0F61F049105B906D161
:1002D40010E11BB9242FF4E0ECEF622FE60F60E08D
:1002E400F61F2491212B2BB9042FF5E0E6E0602FB3
:1002F400E60F60E0F61F049105B9F0D0EEC000915E
:100304000801003009F075C0332744270091060125
:100314002AE077278827802F020B10F07395FBCFF4
:10032400372F482F10E81BB9232FF4E0ECEF622F8E
:10033400E60F60E0F61F2491212B2BB9032FF5E083
:10034400E6E0602FE60F60E0F61F049105B9C6D021
:1003540010E41BB9242FF4E0ECEF622FE60F60E009
:10036400F61F2491212B2BB9042FF5E0E6E0602F32
:10037400E60F60E0F61F049105B9B0D03327442797
:10038400009105012AE077278827802F020B10F0BF
:100394007395FBCF372F482F10E21BB9232FF4E0BE
:1003A400ECEF622FE60F60E0F61F2491212B2BB9AE
:1003B400032FF5E0E6E0602FE60F60E0F61F0491FE
:1003C40005B98CD010E11BB9242FF4E0ECEF622FB7
:1003D400E60F60E0F61F2491212B2BB9042FF5E0E2
:1003E400E6E0602FE60F60E0F61F049105B976D0D1
:1003F40074C033274427009105012AE07727882712
:10040400802F020B10F07395FBCF372F482F10E885
:100414001BB9232FF4E0ECEF622FE60F60E0F61F28
:100424002491212B2BB9032FF5E0E6E0602FE60F92
:1004340060E0F61F049105B951D010E41BB9242FD4
:10044400F4E0ECEF622FE60F60E0F61F2491212B1D
:100454002BB9042FF5E0E6E0602FE60F60E0F61F0D
:10046400049105B93BD033274427009104012AE0C5
:1004740077278827802F020B10F07395FBCF372F37
:10048400482F10E21BB9232FF4E0ECEF622FE60FA4
:1004940060E0F61F2491212B2BB9032FF5E0E6E051
:1004A400602FE60F60E0F61F049105B917D010E144
:1004B4001BB9242FF4E0ECEF622FE60F60E0F61F87
:1004C4002491212B2BB9042FF5E0E6E0602FE60FF1
:1004D40060E0F61F049105B901D008957BE083E63E
:1004E4008A95F1F77A95E1F7089578E685EE8A958D
:1004F400F1F77A95E1F70895020200000000000286
:0C05040000000027090326121007000267
:00000001FF
